:020000040800F2
:1000000000C00020F55200086F3B0008713B00085B
:10001000733B0008753B0008773B000800000000B8
:10002000000000000000000000000000793B000814
:100030007B3B0008000000007D3B00087F3B000880
:100040003D5300083D5300083D5300083D53000850
:100050003D5300083D5300083D5300083D53000840
:100060003D5300083D5300083D530008E9310008A6
:100070003D5300083D5300083D5300083D53000820
:100080003D5300083D5300083D5300083D53000810
:100090003D5300083D5300083D5300083D53000800
:1000A0003D5300083D5300083D5300083D530008F0
:1000B0003D5300083D5300083D5300083D530008E0
:1000C0003D5300083D5300083D5300083D530008D0
:1000D0003D5300083D5300083D5300083D530008C0
:1000E0003D5300083D5300083D5300083D530008B0
:1000F0003D5300083D5300083D5300083D530008A0
:100100003D5300083D5300083D5300083D5300088F
:100110003D5300083D5300083D5300083D5300087F
:100120003D5300083D5300083D5300083D5300086F
:1001300000000000000000000000000000000000BF
:1001400000000000000000000000000000000000AF
:10015000000000000000000000000000000000009F
:10016000000000000000000000000000000000008F
:10017000000000000000000000000000000000007F
:10018000000000000000000000000000000000006F
:10019000000000000000000000000000000000005F
:1001A000000000000000000000000000000000004F
:1001B000000000000000000000000000000000003F
:1001C000000000000000000000000000000000002F
:1001D000000000000000000000000000000000001F
:0401E0005FF8E0F1F3
:1001E4000348044B834202D0034B03B118477047C2
:1001F400600100206001002000000000054806495D
:100204000B1AD90F01EBA301491002D0034B03B120
:1002140018477047600100206001002000000000C2
:1002240010B5064C237843B9FFF7DAFF044B13B13A
:100234000448AFF300800123237010BD6001002047
:10024400000000004053000808B5044B1BB10449EA
:100254000448AFF30080BDE80840CFE70000000089
:10026400640100204053000870B50D4E0D4D761BFF
:10027400B61006D00024013455F8043B9847A64232
:10028400F9D1094E094D05F059F8761BB61006D080
:100294000024013455F8043B9847A642F9D170BDB7
:1002A400145B0008145B0008185B0008145B00086A
:1002B400844641EA000313F0030349D1403A23D3AF
:1002C4000B6803604B6843608B688360CB68C360D2
:1002D4000B6903614B6943618B698361CB69C361BA
:1002E4000B6A03624B6A43628B6A8362CB6AC362A2
:1002F4000B6B03634B6B43638B6B8363CB6BC3638A
:1003040040304031403ADBD230320BD30B680360CB
:100314004B6843608B688360CB68C36010301031D6
:10032400103AF3D20C3205D351F8043B40F8043BA5
:10033400043AF9D2043208D0D2071CBF11F8013BA9
:1003440000F8013B01D30B8803806046704700BF6F
:10035400082A13D38B07B1D010F00303AED0C3F136
:100364000403D21ADB071CBF11F8013B00F8013B60
:10037400A4D331F8023B20F8023B9FE7043AD9D3D7
:10038400013A11F8013B00F8013BF9D20B780370F4
:100394004B7843708B78837060467047044B00221F
:1003A400DA61044A136943F0010313610180704761
:1003B400D001002000200240194BDB6813F0100329
:1003C40005D0184AD36943F00203D3611023144AB9
:1003D400D26812F0040F06D01249CA6942F0010231
:1003E400CA6143F004030E4AD26912F0010F09D026
:1003F4000C49CA6942F00402CA610949CA6922F077
:100404000102CA6140F20112934202D0044AD3604D
:100414007047034AD36923F00103D361704700BFD7
:1004240000200240D0010020074B1B6913F0800F0D
:1004340007D0054B054A5A6002F188325A60002001
:1004440070470120704700BF002002402301674528
:10045400034A136943F0800313610020704700BF0F
:100464000020024038B5044601F056F90546164B03
:10047400DB6813F0010F0AD0B4F1FF3FF7D024B1C9
:1004840001F04AF9401BA042F1D903201BE00E4BB6
:10049400DB6813F0200F02D00B4B2022DA600A4BEA
:1004A400DB6813F0100F0BD1074BDB6913F0010F5E
:1004B40006D1054BDB6813F0040F01D1002002E0E4
:1004C400FFF77AFF012038BD002002402DE9F843F0
:1004D4001E46234B1B7E012B40D004460F469046FC
:1004E4001F4B01221A764CF25030FFF7BBFF034634
:1004F40070BB012C29D0022C24D04FF004091C46D7
:100504004C4525D22101C1F12002A1F1200328FA92
:1005140001F106FA02F2114326FA03F3194389B2F0
:1005240007EB4400FFF73AFF4CF25030FFF79AFF15
:100534000C4B1D6925F001051D61034640B90134CA
:10054400E4B2DDE74FF00209D9E74FF00109D6E73D
:10055400034A002111761846BDE8F8830223FAE71E
:10056400D00100200020024082B0084B1B68084ADA
:10057400A2FB03235B0A00FB03F3019300BF019B6F
:100584005A1E0192002BF9D102B0704700000020DE
:10059400D34D621070B582B00446036813F0010FA6
:1005A4002CD0AB4B5B6803F00C03042B1DD0A84B81
:1005B4005B6803F00C03082B12D06368B3F5803F2B
:1005C40041D0002B55D103F1804303F504331A685D
:1005D40022F480321A601A6822F480221A6037E00A
:1005E4009B4B5B6813F4803FE7D0994B1B6813F473
:1005F400003F03D06368002B00F0AE81236813F042
:10060400020F75D0924B5B6813F00C0F5FD0904BC8
:100614005B6803F00C03082B54D02369002B00F013
:1006240089808C4B01221A6001F076F80546884BCC
:100634001B6813F0020F74D101F06EF8401B0228FE
:10064400F5D903208DE1824A136843F480331360A3
:10065400636843B301F060F805467D4B1B6813F4EF
:10066400003FCBD101F058F8401B6428F5D9032092
:1006740077E1B3F5A02F09D0754B1A6822F48032C4
:100684001A601A6822F480221A60E1E703F18043B9
:10069400A3F53C331A6842F480221A601A6842F4C3
:1006A40080321A60D4E701F037F80546684B1B68BE
:1006B40013F4003FA2D001F02FF8401B6428F5D9B1
:1006C40003204EE1624B5B6813F4803FA5D1604B7D
:1006D4001B6813F0020F03D02369012B40F03E8105
:1006E4005B4A136823F0F803616943EAC1031360AA
:1006F400236813F0080F32D0A369002B45D0564B62
:1007040001221A6001F008F80546514B5B6A13F0A8
:10071400020F21D101F000F8401B0228F5D9032073
:100724001FE14B4A136823F0F803616943EAC103EC
:100734001360DDE7474B00221A6000F0EDFF054629
:10074400434B1B6813F0020FD2D000F0E5FF401BAF
:100754000228F5D9032004E10120FFF705FF2368EF
:1007640013F0040F00F09880394BDB6913F0805FBD
:100774001DD1374BDA6942F08052DA61DB6903F04C
:1007840080530193019B012512E0334B00221A6030
:1007940000F0C2FF05462E4B5B6A13F0020FDED059
:1007A40000F0BAFF401B0228F5D90320D9E0002548
:1007B4002A4B1B6813F4807F11D0E368012B22D0ED
:1007C400002B38D103F1804303F504331A6A22F075
:1007D40001021A621A6A22F004021A6218E01F4A1D
:1007E400136843F48073136000F096FF06461B4BB6
:1007F4001B6813F4807FE0D100F08EFF801B642817
:10080400F5D90320ADE0124A136A43F001031362E1
:10081400E3687BB300F080FF06460D4B1B6A13F0C0
:10082400020F38D100F078FF801B41F288339842E0
:10083400F3D9032095E0052B12D0054B1A6A22F058
:1008440001021A621A6A22F004021A62E0E700BF87
:100854000010024000004242800442420070004006
:10086400424B1A6A42F004021A621A6A42F0010206
:100874001A62CDE700F050FF06463C4B1B6A13F0AA
:10088400020F08D000F048FF801B41F288339842E1
:10089400F3D9032065E0E5B9E369002B60D0334A5E
:1008A400526802F00C02082A5DD0022B17D0304B9C
:1008B40000221A6000F030FF04462C4B1B6813F032
:1008C400007F47D000F028FF001B0228F5D9032041
:1008D40047E0264AD36923F08053D361DCE7244BF5
:1008E40000221A6000F018FF0546204B1B6813F025
:1008F400007F06D000F010FF401B0228F5D903202A
:100904002FE0236AB3F5803F1AD018494B6823F4CB
:100914007413226A606A024313434B60144B01222E
:100924001A6000F0F9FE0446104B1B6813F0007FB8
:100934000ED100F0F1FE001B0228F5D9032010E0CF
:100944000A4A536823F40033A1680B435360DCE77D
:10095400002006E0002004E0012002E0012000E085
:10096400002002B070BD0120FBE700BF0010024070
:100974006000424286B0164B0FCB0DF1180C0CE907
:100984000F0040F20123ADF80430124B5B6803F012
:100994000C02082A02D0104806B07047C3F3834201
:1009A400624412F8100C13F4803F0CD0094B5B68BE
:1009B400C3F34043634413F8142C074BB3FBF2F323
:1009C40000FB03F0E8E7054B03FB00F0E4E700BF9E
:1009D400585300080010024000127A0000093D003C
:1009E40070B504460D46594B1B6803F007038B4250
:1009F4000BD2564A136823F007030B4313601368A2
:100A040003F007038B4240F09A80236813F0020F2F
:100A140006D04F4A536823F0F003A1680B43536098
:100A2400236813F0010F52D06368012B23D0022BEB
:100A340028D0474A126812F0020F00F0828044491D
:100A44004A6822F0030213434B6000F065FE064639
:100A54006368012B1DD0022B2AD03D4B5B6813F039
:100A64000C0F34D000F058FE831B41F288329342BD
:100A7400F3D9032062E0364A126812F4003FDED153
:100A840001205BE0324A126812F0007FD7D10120C6
:100A940054E02F4B5B6803F00C03042B17D000F0D9
:100AA4003BFE831B41F288329342F2D9032045E096
:100AB400274B5B6803F00C03082B08D000F02CFED6
:100AC400801B41F288339842F2D9032036E01F4B51
:100AD4001B6803F00703AB420AD91C4A136823F0CE
:100AE40007032B431360136803F00703AB422AD1B7
:100AF400236813F0040F06D0154A536823F4E06307
:100B0400E1680B435360236813F0080F07D0104AC1
:100B1400536823F46053216943EAC1035360FFF728
:100B240029FF0B4B5B68C3F303130A4AD35CD84019
:100B3400094B1860002000F0BFFD002070BD0120AB
:100B4400FCE70120FAE70120F8E700BF002002409B
:100B5400001002406C53000800000020014B18688C
:100B6400704700BF0000002030B4036A23F0010383
:100B74000362056A4268846924F073040B681C43A9
:100B840025F002058B682B43104DA84203D005F5D0
:100B94000065A84205D123F00803CD682B4323F058
:100BA40004030A4DA84203D005F50065A84205D107
:100BB40022F440724D6915438A692A434260846174
:100BC4004A684263036230BC704700BF002C014096
:100BD40030B4036A23F480730362036A4268C4690D
:100BE40024F073040D682C4323F400738D6843EAE6
:100BF4000523124DA84203D005F50065A84206D18D
:100C040023F40063CD6843EA052323F480630B4D8A
:100C1400A84203D005F50065A84207D122F440524A
:100C24004D6942EA05128D6942EA05124260C461C7
:100C34004A68C263036230BC704700BF002C0140A5
:100C440030B4036A23F480530362036A4468C269BC
:100C540022F4E6420D6842EA052223F400538D682B
:100C640043EA0533094DA84203D005F50065A842BF
:100C740004D124F480444D6944EA85144460C2617B
:100C84004A680264036230BC704700BF002C014014
:100C940030B4036A056A25F001050562846924F00D
:100CA400F00444EA021423F00A030B438461036250
:100CB40030BC704730B4056A25F0100505628469BC
:100CC400036A24F4704444EA023423F0A00343EAA0
:100CD40001138461036230BC704710B4846824F447
:100CE4007F4442EA03220A432243826010BC7047D5
:100CF40010B50468A26822F070024B68134323F015
:100D040007030A681343A3604B68602B24D009D8F7
:100D1400402B10D0502B0DD10A6989680068FFF769
:100D2400B7FF07E0702B05D10B698A68C9680068B2
:100D3400FFF7D3FF10BD03681C6A1A6A22F0010290
:100D44001A620268936923F0F003096943EA011304
:100D5400936103681C62EDE70A6989680068FFF71C
:100D6400A9FFE7E7704738B590F83C30012B18D05D
:100D74000446012580F83C50022380F83D30FFF7FB
:100D8400B7FF2268D36823F04003D3602268D36896
:100D940023F48043D36084F83D50002084F83C0061
:100DA40038BD0220FCE700000368244A904212D0B8
:100DB40002F5006290420ED0B0F1804F0BD0A2F544
:100DC4009832904207D002F58062904203D002F537
:100DD4008062904203D123F070034A681343174A98
:100DE400904212D002F5006290420ED0B0F1804FD2
:100DF4000BD0A2F59832904207D002F5806290425F
:100E040003D002F58062904203D123F44073CA6890
:100E1400134323F080034A69134303608B68C3625E
:100E24000B688362054B984203D003F50063984234
:100E340001D10B690363012343617047002C014016
:100E4400B0B110B5044690F83D3063B1022384F884
:100E54003D30214651F8040BFFF7A6FF012384F827
:100E64003D30002010BD80F83C30FFF77BFFEDE7FC
:100E74000120704730B4036A23F010030362036A4D
:100E84004468826922F4E6420D6842EA052223F0AE
:100E940020038D6843EA0513114DA84203D005F5DC
:100EA4000065A84206D123F08003CD6843EA051308
:100EB40023F040030A4DA84203D005F50065A8427B
:100EC40007D124F440644D6944EA85048D6944EAF9
:100ED4008504446082614A688263036230BC70475F
:100EE400002C014038B590F83C30012B66D0044604
:100EF4000D46012380F83C30022380F83D300C2A53
:100F04001AD8DFE802F00719191920191919341928
:100F1400191947000068FFF727FE2268936943F018
:100F2400080393612268936923F0040393612268A0
:100F3400936929690B439361012384F83D300020B0
:100F440084F83C0038BD0068FFF794FF2268936979
:100F540043F4006393612268936923F4806393618B
:100F640022689369296943EA01239361E4E70068ED
:100F7400FFF72EFE2268D36943F00803D361226889
:100F8400D36923F00403D3612268D36929690B432D
:100F9400D361D1E70068FFF753FE2268D36943F4B5
:100FA4000063D3612268D36923F48063D361226828
:100FB400D369296943EA0123D361BDE70220C1E76C
:100FC40010B4012303FA01F4036A23EA040303625D
:100FD400036A02FA01F10B43036210BC704700007C
:100FE40010B5044601220068FFF7EAFF2368094AA6
:100FF400934203D002F50062934203D15A6C42F447
:1010040000425A642268136843F00103136000200D
:1010140010BD00BF002C014010B4042303FA01F4F6
:10102400036A23EA04030362036A02FA01F10B432D
:10103400036210BC704710B5044604220068FFF731
:10104400EBFF2268536C43F4004353642268136833
:1010540043F001031360002010BD90F83C30012BD5
:1010640025D0012380F83C30CB6823F440738A6890
:10107400134323F480634A68134323F400630A6828
:10108400134323F480530A69134323F400534A6936
:10109400134323F480438A69134323F40043134323
:1010A40002685364002380F83C30184670470220DD
:1010B400704790F83C30012B22D030B4012280F8E4
:1010C4003C20022380F83D300468636823F07003F9
:1010D4006360046863680D682B4363600468A368F5
:1010E40023F08003A3600468A36849680B43A360EA
:1010F40080F83D20002380F83C30184630BC70470F
:1011040002207047034690F82420012A20D00122AF
:1011140080F824200268906810F0010F07D10D4870
:10112400806810F0010F02D10B48824208D09A6AFD
:1011340042F020029A620120002283F824207047A2
:10114400506820F470200968014351600020F3E7DF
:10115400022070470028014000240140074AD36858
:1011640023F4E0631B041B0C000200F4E06003435F
:1011740043F0BF6343F40033D360704700ED00E0F5
:1011840030B4174BDB68C3F30223C3F10704042C08
:1011940028BF04241D1D062D18D9033B4FF0FF352D
:1011A40005FA04F421EA0401994005FA03F322EA5A
:1011B4000303194300280BDB0901C9B200F16040A5
:1011C40000F5614080F8001330BC70470023E5E768
:1011D40000F00F000901C9B2024B1954F4E700BF33
:1011E40000ED00E014ED00E000F01F0240090123CF
:1011F4009340024A42F82030704700BF00E100E00B
:101204000138B0F1807F0AD2064B5860064AF021BB
:1012140082F823100020986007221A60704701208A
:10122400704700BF10E000E000ED00E0042805D0A6
:10123400054A136823F0040313607047024A1368D5
:1012440043F004031360704710E000E0704708B5F2
:10125400FFF7FCFF08BD0000064B0022DA61064BD5
:101264001A6942F004021A611A6942F040021A61D2
:10127400704700BFD001002000200240064B00222E
:10128400DA61064B1A6942F002021A6158611A695E
:1012940042F040021A617047D00100200020024051
:1012A400264B1B7E012B46D070B505460E46234BBC
:1012B40001221A760368022B20D04CF25030FFF73B
:1012C400D1F890BB4FF0FF333360AC680121EA687A
:1012D400AB6803EBC223A34228D92046FFF7CEFF15
:1012E4004CF25030FFF7BEF8154A136923F002039D
:1012F40013610146B8B904F50064E8E74CF25030D4
:10130400FFF7B0F808B1012110E00120FFF7A4FFB6
:101314004CF25030FFF7A6F80146094A136923F04E
:101324000403136102E0346000E00121034B002256
:101334001A76084670BD022108467047D001002085
:1013440000200240F0B482B000252C46ABE0854F6B
:10135400BB4210D007D9844FBB420CD007F580376D
:10136400BB4208D013E0A7F58017BB4203D007F5B2
:101374007027BB4207D18B68002B60D0012B59D05A
:101384004261082503E0A7F58017BB42F3D0FF2E86
:1013940057D88446FF2E57D8A200DCF800300F2718
:1013A400974023EA070305FA02F21343CCF800300E
:1013B4004B6813F0805F75D06C4B9A6942F0010260
:1013C4009A619B6903F001030193019BA208971C96
:1013D400674B53F827C004F003039F000F23BB405F
:1013E4002CEA030C634B984234D003F58063984293
:1013F40000F0948003F58063984200F0918003F537
:101404008063984200F08E8003F58063984200F078
:101414008B8003F5806398421AD006231BE0CD68C5
:10142400B5E7CD680435B2E7CD680835AFE7CD68D8
:101434000C35ACE702610825A9E70025A7E70425D8
:10144400A5E700F1040CA5E7A4F108029200A4E7C3
:10145400052300E00023BB4043EA0C030232444F5F
:1014640047F822304B6813F4803F5FD0424A136838
:10147400334313604B6813F4003F5DD03E4A536816
:10148400334353604B6813F4801F5BD03A4A93682C
:10149400334393604B6813F4001F59D0364AD36822
:1014A4001E43D66001340F2C58D80122A2400B6889
:1014B40003EA020632EA0303F4D14B68122B3FF627
:1014C40046AF122B3FF663AF01A757F823F000BFD6
:1014D4007B130008231400082D1400083F1400088F
:1014E4009313000893130008931300089313000840
:1014F4009313000893130008931300089313000830
:10150400931300089313000893130008931300081F
:1015140093130008271400083314000801239AE7E2
:10152400022398E7032396E7042394E7124A1368F7
:1015340023EA060313609DE70F4A536823EA060370
:1015440053609FE70C4A936823EA06039360A1E77C
:10155400094AD36823EA0606D660A3E702B0F0BCC2
:10156400704700BF0000221000003110001002403C
:101574000000014000080140000401408368194252
:1015840001D001207047002070470AB10161704703
:10159400090401617047C3685940C1607047000085
:1015A40070B582B00446036813F0010F34D03E4B8B
:1015B400DB6913F0805F47D13B4BDA6942F080521C
:1015C400DA61DB6903F080530193019B0125374BFA
:1015D4001B6813F4807F39D0334B1B6A13F44073B8
:1015E40011D0626802F440729A420CD02E4A136AF7
:1015F40023F440702E4901260E6000260E6010620E
:1016040013F0010F36D1284A136A23F4407361683A
:101614000B431362002D3ED1236813F0020F06D052
:10162400214A536823F44043A1680B435360236861
:1016340013F0100F34D01C4A536823F480036169FB
:101644000B43536000202CE00025C0E7174A1368C1
:1016540043F48073136000F05FF80646134B1B6875
:1016640013F4807FB8D100F057F8801B6428F5D9B3
:10167400032016E000F050F806460B4B1B6A13F0EB
:10168400020FC0D100F048F8801B41F28833984221
:10169400F3D9032005E0D36923F08053D361BBE77A
:1016A400002002B070BD00BF001002400070004076
:1016B400400442427047000010B50446074B1868C6
:1016C400074BA3FB00308009FFF79AFD0022214657
:1016D4004FF0FF30FFF754FD002010BD0000002044
:1016E400D34D621008B5074A136843F01003136022
:1016F4000320FFF733FD0020FFF7DEFFFFF7DAFFDB
:10170400002008BD00200240024A13680133136020
:10171400704700BFF0010020014B1868704700BFFC
:10172400F001002030B583B00190FFF7F5FF0546C6
:10173400019CB4F1FF3F00D00134FFF7EDFF401BE3
:10174400A042FAD303B030BD7047000030B482B079
:101754000022019290F82420012A00F08B80034695
:10176400012280F824204A68062A29D80568686B73
:1017740002EB8202053A1F24944020EA04000C681C
:1017840004FA02F202436A630A68092A38D91D6816
:10179400E86802EB42021E3A0724944020EA04005F
:1017A4008C6804FA02F20243EA600A68103A012AD9
:1017B40034D90020002283F8242002B030BC7047C2
:1017C4000C2A0ED80568286B02EB8202233A1F24E8
:1017D400944020EA04000C6804FA02F202432A63EB
:1017E400D2E70568E86A02EB8202413A1F2494407A
:1017F40020EA04000C6804FA02F20243EA62C3E736
:101804001D68286902EB42020724944020EA040080
:101814008C6804FA02F202432A61C6E71A68164881
:10182400824205D09A6A42F020029A620120C1E7FE
:10183400906810F4000F1BD1906840F40000906091
:101844000A68102A01D00020B4E70C4A12680C4937
:10185400A1FB0212920C02EB82025200019202E0FE
:10186400019A013A0192019A002AF9D10020A1E7D4
:1018740000209FE70220A0E7002401400000002090
:1018840083DE1B4330B583B00023019303689A6859
:1018940012F0010F2DD104469A6842F001029A60B9
:1018A400154B1B68154AA2FB03239B0C0193019B58
:1018B4001BB1019B013B0193F9E7FFF72DFF05469F
:1018C40023689B6813F0010F11D1FFF725FF431B19
:1018D400022BF5D9A36A43F01003A362E36A43F031
:1018E4000103E362002384F82430012002E0002095
:1018F40000E0002003B030BD0000002083DE1B4365
:1019040090F82430012B68D010B50446012380F8E8
:101914002430FFF7B7FF00285BD1A36A23F4407398
:1019240023F0010343F48073A36223682C4A934297
:1019340027D0A26A22F48012A2625A6812F4806F3D
:1019440005D0A26A22F4405242F48052A262A26AF2
:1019540012F4805F2BD0E26A22F00602E2620022D7
:1019640084F824206FF002021A6023689A6802F453
:101974006022B2F5602F1DD09A6842F480129A60FA
:101984002AE0A2F58062526812F4702FD1D0A26AC4
:1019940042F48012A262134A526812F4806FD6D0C5
:1019A400A26A22F4405242F48052A262CFE700229B
:1019B400E262D4E70A4A934204D09A6842F4A0024D
:1019C4009A6009E0A2F58062526812F4702FD3D1B4
:1019D400F3E7002384F8243010BD0220704700BFD1
:1019E400002801400024014038B503689A6812F0C9
:1019F400010F01D1002038BD04469A6822F001028B
:101A04009A60FFF789FE054623689B6813F0010F6F
:101A14000ED0FFF781FE431B022BF5D9A36A43F0D6
:101A24001003A362E36A43F00103E3620120E2E7E7
:101A34000020E0E7002800F08680F8B50446836AB9
:101A4400002B50D02046FFF7CFFFA36A13F01003FA
:101A540073D1002871D1A26A22F4885222F00202C2
:101A640042F00202A2626268266838498E4240D07F
:101A7400E1690A43E16842EA4102A568B5F5807F5D
:101A840002D0012D3CD01D466769012F3BD07168FF
:101A940021F46941294371602568AE682C493140BD
:101AA4001143A960A168B1F5807F01D0012902D159
:101AB4002369013B1B052568E96A21F470010B4386
:101AC400EB6223689968234B0B409A422CD0A36A9B
:101AD40023F0120343F01003A362E36A43F001030B
:101AE400E36201202EE0C36280F82430FFF72CFE6D
:101AF400A8E7E169B1F5402FBBD14FF40021B8E765
:101B04004FF48075C0E731B9A169013945EA413123
:101B140041F40065BBE7A16A41F02001A162E16ADA
:101B240041F00101E162B2E70023E362A36A23F01A
:101B3400030343F00103A36204E0A36A43F0100328
:101B4400A3620120F8BD0120704700BF003C0140A2
:101B5400FDF7E1FFFE0E1FFF0F4B1A6842F0010272
:101B64001A6059680D4A0A405A601A6822F0847251
:101B740022F480321A601A6822F480221A605A68A9
:101B840022F4FE025A604FF41F029A60044B4FF095
:101B940000629A60704700BF001002400000FFF826
:101BA40000ED00E02DE9F04F89B0834B9A6942F0D3
:101BB40004029A619A6902F004020192019A9A69F4
:101BC40042F008029A619A6902F008020292029AAB
:101BD4009A6942F010029A619B6903F0100303931F
:101BE400039B4FF00009CDF81490CDF8189002270C
:101BF40007974FF0200ACDF810A0704E04A9304684
:101C0400FFF7A0FB4023049304A93046FFF79AFB97
:101C14004FF0800BCDF810B004A93046FFF792FBCB
:101C24004FF480630493664C04A92046FFF78AFBB3
:101C34004FF40063049304A92046FFF783FB4FF499
:101C44008055049504A92046FFF77CFB4FF001085A
:101C5400CDF81880049505F1804505F5784504A96B
:101C64002846FFF76FFBCDF81890049704A928467F
:101C7400FFF768FBCDF814804FF00409CDF81090FD
:101C840004A93046FFF75EFB102304930DEB030118
:101C94002846FFF757FBCDF810A004A92846FFF704
:101CA40051FB03230593CDF8108004A92046FFF7C8
:101CB40049FBCDF8108004A92846FFF743FB08230D
:101CC400049304A92046FFF73DFB049704A920468A
:101CD400FFF738FB102304930DEB03012046FFF7B5
:101CE40031FBCDF810A004A92046FFF72BFBCDF85B
:101CF400109004A92046FFF725FB0823049304A9A8
:101D04002846FFF71FFBCDF8109004A92846FFF7DB
:101D140019FB05974023049304A92046FFF712FBFF
:101D2400CDF810B004A92046FFF70CFB4FF48079DE
:101D3400CDF8109004A92046FFF704FBCDF810B0AD
:101D440004A92846FFF7FEFACDF8108004A930460E
:101D5400FFF7F8FA049704A93046FFF7F3FACDF831
:101D6400109004A92846FFF7EDFA4FF4007304938A
:101D740004A92846FFF7E6FA4FF48063049304A904
:101D84002846FFF7DFFA4FF40053049304A93046C2
:101D9400FFF7D8FA4FF48043049304A93046FFF7C1
:101DA400D1FA4FF40043049304A93046FFF7CAFA6A
:101DB40009B0BDE8F08F00BF00100240000C0140E4
:101DC400001001402DE9F04F99B0764B9A6942F426
:101DD40000629A619A6902F400620192019A9A6916
:101DE40042F400529A619B6903F400530293029BEC
:101DF4006D4EDFF8BC91C6F80090002474604FF07B
:101E0400200AC6F808A04FF4FA6BC6F80CB0346187
:101E14007461B4613046FFF713F8102316931794D6
:101E240016A93046FFF745F960230F9310941194D7
:101E340008271297139414944FF4007315932246B1
:101E44000FA93046FFF74EF804220FA93046FFF7DA
:101E540049F83A460FA93046FFF744F84FF40063B7
:101E640008934FF4806309930A9430230B930C94E2
:101E74000D940E940DEB0A013046FFF7EEF84B4D2E
:101E8400DFF83081C5F800806C60C5F808A0C5F89B
:101E94000CB02C616C61AC612846FEF7D1FFCDF823
:101EA40058A08023179316A92846FFF702F9049433
:101EB4000523039303A92846FEF755FF5023C8F8CA
:101EC400243060230F931094119412971394149454
:101ED4004FF40073159322460FA92846FFF702F822
:101EE40004220FA92846FEF7FDFF3A460FA928460B
:101EF400FEF7F8FF4FF4006308934FF480630993EF
:101F04000A9430230B930C940D940E940DEB0A0158
:101F14002846FFF7A2F8D8F8443023F40043C8F861
:101F24004430D9F8443023F40043C9F844302146FE
:101F34002846FFF755F804212846FFF751F839469B
:101F44002846FFF74DF821462846FFF774F8042188
:101F54002846FFF770F839462846FFF76CF8214603
:101F64003046FFF73DF804213046FFF739F839468B
:101F74003046FFF735F821463046FFF75CF8042178
:101F84003046FFF758F839463046FFF754F82B68C7
:101F940001221A633268136843F00103136019B015
:101FA400BDE8F08F0010024040030020140500201B
:101FB400002C0140003401402DE9F04387B0434E2A
:101FC400B36943F40073B361B36903F4007300931A
:101FD400009B3F4C3F4B23604FF48073A36000256C
:101FE400E56065614FF44023E36165604FF00508E7
:101FF400C4F810802046FFF71DFD374A536843F4A8
:10200400802353604FF4C023059305A92046FFF7AE
:1020140079F804950B2702974FF00109CDF80C903D
:1020240002A92046FFF792FBCDF8109002950223F7
:10203400039302A92046FFF789FB0E23029303238F
:10204400039302A92046FFF781FB0C230293042388
:10205400039302A92046FFF779FB07230493102377
:102064000293CDF80C8002A92046FFF76FFB22688B
:10207400936843F4000343F480739360936843EAE2
:1020840009039360736943EA09037361736903EA9B
:1020940009030193019B114B1D60C3F80480104A8E
:1020A4009A60104ADA6040F6A2221A601A6842EA7C
:1020B40009021A602A4629463846FFF761F838466D
:1020C400FFF792F807B0BDE8F08300BF00100240AC
:1020D4004C0400200024014000000140080002409C
:1020E4004C240140C0040020F0B585B0274B9A6908
:1020F40042F480629A619B6903F480630093009BBD
:10210400234C244B23604FF48073A3600025E560C7
:1021140065614FF46023E36165600526266120460E
:10212400FFF788FC03950A2301930125029501A971
:102134002046FFF70BFB03950D230193022702971B
:1021440001A92046FFF702FB0F2301930325029503
:1021540001A92046FFF7FAFA0197042302930DEB35
:1021640003012046FFF7F2FA0195029601A92046E1
:10217400FFF7ECFA23689A6842F480729A609A68CE
:1021840042F001029A6005B0F0BD00BF00100240A9
:10219400BC0200200028014070B5224C002384F8C2
:1021A400FB3084F8FA30022384F8F930012684F8ED
:1021B400FD6045F6C053A4F8CE304FF4FA43A4F8BA
:1021C400DA3084F8FE604FF49653A4F8D0304FF41C
:1021D400C873A4F8CC304FF47A53A4F8E03042F634
:1021E400E063A4F8E230104D4FF480722146284693
:1021F400FEF75EF885F8FA600C4804600C4BC36087
:102204000C4B43600C4B83600C4C25600C4BE3601F
:102214000C4B63600C4BA36003F00AF8204603F0F8
:1022240007F870BD60000020580500200408002055
:1022340068060020E007002014070020F0070020B3
:102244003407002024070020580600200C4B93F884
:10225400FE301BB90B4B93F8FE3043B10A4B4FF4DD
:102264007A721A80094B4FF618421A807047064B4F
:102274004FF47A721A80054B4FF618421A80704751
:1022840060000020580500207E010020800100200D
:1022940010B5084B00221A70082405E0064B1C7088
:1022A4006420FFF73FFA013C002CF7DA024B0022CE
:1022B4001A7010BDA7010020A8010020034B18705C
:1022C400034B1970034B1A70704700BFA70100201D
:1022D400A8010020AA01002038B50025044B1D7078
:1022E400044C20704FF4FA70FFF71CFA257038BDC7
:1022F400A7010020A801002038B50025044B1D705B
:10230400044C20706420FFF70DFA257038BD00BF1F
:10231400A7010020A8010020094BB3F90830094A9D
:10232400B2F908209B1A03EBD37343F34F03064A15
:102334001380002BB8BF5B42044A1380704700BF70
:10234400580600201407002054050020000800202F
:1023540008B5FFF7E1FF0D4BB3F90030052B00DDA5
:1023640008BD4FF47A530A4AA2F8DA30094AA2F8AF
:10237400DA300520FFF7C0FF0520FFF7BDFF052079
:10238400FFF7BAFF0520FFF7B7FFE9E700080020D1
:1023940058050020600000207047000070B5184BFD
:1023A40083FB0054C517C5EBE41583FB0243D41724
:1023B400C4EBE3139D421AD0114E86FB0146CC17A1
:1023C400C4EBE614A34215D0904215DC8A4215DB17
:1023D400A5420AD0022464280ADD40F69A739A4280
:1023E40006DC0220FFF778FF02E00124F3E7002473
:1023F400204670BD0024FBE70024F9E70024F7E73A
:102404001F85EB512DE9F04383B0FEF70DF801F081
:102414000DFA0DF10601644B188801F0E5F9BDF8D9
:10242400062041F207139A4207D00024002C79D0E9
:10243400FEF70EF803B0BDE8F0835B4E01A9708887
:1024440001F0D2F9BDF90430584DA5F8CE30584CFE
:10245400A4F8CE3001A9B08801F0C6F9BDF9043062
:10246400A5F8DA30A4F8DA300025002DE0D1EC002C
:10247400E31C4D4E01A936F8130001F0B5F99DF89F
:102484000430621B4B4F07EB42073B71231D01A92C
:1024940036F8130001F0A8F9BDF90430FB80631D80
:1024A40001A936F8130001F09FF9BDF904303B810E
:1024B400A31D01A936F8130001F096F9BDF9043003
:1024C4007B81E31D01A936F8130001F08DF99DF815
:1024D4000430DFF8E480671B08EB47073B7105F124
:1024E40001094FEAC90301A936F8130001F07CF988
:1024F400BDF90430FB8004F1090301A936F8130087
:1025040001F072F9BDF904303B8104F10A0301A919
:1025140036F8130001F068F9BDF904307B815FFAE5
:1025240089F5A2E72546C4EBC403224A02EB430320
:102534005979032916D0C4EBC4031E4A02EB4303A2
:102544001971C5EBC5031C4A02EB43035A79032AEC
:1025540016D0C5EBC505184B03EB45052A710134AC
:10256400E4B263E7C4EBC40602EB4606B6F90A20FC
:10257400B6F90810B6F90600FFF710FF3071E0E76E
:102584000D4EEF00C5EBC50306EB4303B3F90A2078
:10259400B3F90810B3F90600FFF700FF7D1B06EB43
:1025A40045063071DBE700BF040000205805002019
:1025B400600000202C0000203C000020F0B40479CE
:1025C400012C04D0022C16D00023438011E0B0F972
:1025D4000030B0F906401B1B02FB03F3B0F90A10EC
:1025E400091B93FBF1F39A4202DB23EAE37212B272
:1025F4004280F0BC7047B0F90030B0F90840B0F93F
:102604000C50661BB34205DD6719BB4202DA002396
:102614004380EEE7A3420FDD2C441B1B02FB03F3B4
:10262400B0F90A100C1B93FBF4F39A4202DB23EA81
:10263400E37212B24280DCE79A1B01FB02F2B0F9AA
:1026440006309B1B92FBF3F3002B02DD002141803B
:10265400CFE79942B8BF194609B2F8E7094B1B788E
:102664007BB910B4084AD489C3EBC30041000748BE
:102674004452518AC3EBC3035A00054B995210BC10
:102684007047704783010020C00400202C00002004
:102694003C0000202D4B1B78002B3BD12C49C3EB75
:1026A400C30042008818895EB0F90620C83A9142F6
:1026B40024DBC3EBC3025000254A0244B2F90A20CA
:1026C400C83291421ADC2349C3EBC3004200881884
:1026D400895EB0F90620C83A91420FDBC3EBC3020E
:1026E40050001C4A0244B2F90A20C832914205DC67
:1026F400002219490A7019490A800BE017490A880F
:10270400501C0880632A05D9134A01211170134A09
:1027140064211180104A12782AB9114A127812B928
:10272400104A127862B100220F490A70C3EBC30148
:102734004800074901444A80064B03445A807047C5
:102744000A4B1A78084B1A70704700BF83010020A7
:102754002C0000203C000020850100204A000020BD
:10276400860100207C0100202A0000202B0000208C
:1027740070B5FFF773FF0F4E33780F4D0F4CC3EB5B
:10278400C3035800B5F90020B4F900100C4B1844E9
:10279400FFF714FF3378C3EBC3035800B5F90020E7
:1027A400B4F90010074B1844FFF708FFFFF772FF56
:1027B40070BD00BF830100207E0100208001002045
:1027C4002C0000203C0000202DE9F843374B1B78F7
:1027D40013B9374B1B78C3B1FDF726FE354C41F2D4
:1027E4000711208801F0B4F9334DB5F9CE1089B240
:1027F400608801F0ADF9B5F9DA1089B2A08801F06A
:10280400A7F900251DB1FDF723FEBDE8F883EC0010
:10281400E01C621B5300294F1F44264E397936F8B9
:10282400100001F095F9231DB7F9061089B236F8A6
:10283400130001F08DF9631DB7F9081089B236F859
:10284400130001F085F9A31DB7F90A1089B236F80F
:10285400130001F07DF9E21DDFF86480631B5F0063
:102864004744397936F8120001F072F905F101098B
:102874004FEAC903B7F9061089B236F8130001F01C
:1028840067F904F10903B7F9081089B236F813009F
:1028940001F05EF904F10A02B7F90A1089B236F8B8
:1028A400120001F055F95FFA89F5ABE784010020C5
:1028B4008201002004000020600000202C00002081
:1028C4003C00002010B500240B4B1C700B4B1C70FB
:1028D4000B4B1C7005E00B4B1C706420FEF722FFB1
:1028E4000134072CF7DDFFF76FFF00222021064893
:1028F400FEF74BFEFEE700BFBC010020A70100204D
:10290400AA010020A8010020000801402DE970035D
:102914000C4616683313C3EB00104FEAE079A1FBB1
:10292400000104FB0911040944EA01740D11B4F116
:10293400004F75F1000308DA2346B4F1004F75F136
:10294400FF3104DA4FF0004301E06FF000431E440E
:102954001660BDE8700370472DE9F04F85B0FFF7AE
:10296400DBFC5B4BB3F90030052B02DD05B0BDE8A1
:10297400F08FFFF773FE574B1B78C3EBC301564A26
:1029840032F9112012040392544A32F9112012042C
:102994000292002B42D0002301930025DFF84881E6
:1029A4002E4647F6FF79C2462F46CB4602214C48B5
:1029B400FEF7E4FDA8BB6C1CA4B2B5F57A6F30D267
:1029C400FFF74CFE434D2B78C3EBC30303AA41F638
:1029D4009911414830F91300FFF798FF2B78C3EBA6
:1029E400C30302AA41F699113C4830F91300FFF7DA
:1029F4008DFFBDF90E70BDF90A60BB45A8BFBB468B
:102A0400BA45B8BFBA46B145A8BFB146B045B8BF8C
:102A1400B0460520FEF786FE2546C7E764230193EA
:102A2400BBE7524639465846FFF7B8FC294B1B789A
:102A3400C0B2C3EBC301284A02EB410210715279C0
:102A4400904209D0032A07D0C3EBC303224A02EB06
:102A5400430300221A710DE0019883441E4AC3EB1C
:102A6400C30102EB4101A1F806B00F81AAEB000AF1
:102A7400A1F80AA0424631464846FFF78FFC154BA1
:102A84001B78C0B2C3EBC301144A02EB41021071BC
:102A94005279904209D0032A07D0C3EBC3030F4AEB
:102AA40002EB430300221A710DE0019881440B4AA2
:102AB400C3EBC30102EB4101A1F806900E81A8EB20
:102AC4000008A1F80A80074B01221A704EE700BFE4
:102AD40000080020830100202C0000203C0000207E
:102AE40000080140840100200080FFFF38B5022166
:102AF4002B48FEF743FDD0B100252A4B1D7003E09F
:102B04000520FFF7F9FB254602212548FEF736FD8F
:102B140040B10A20FEF706FE6C1CA4B2B5F5FA7F9C
:102B2400F1D1EDE7B5F5FA7F02D2082D36D838BDDC
:102B34004FF47A70FEF7F6FD02211948FEF71EFDE8
:102B440058B91020FFF7C8FBFFF706FF0520FFF771
:102B5400D3FBECE70A20FEF7E5FD02211048FEF75F
:102B64000DFD0028F6D10820FFF7B6FB0820FFF77B
:102B7400B3FB0820FFF7B0FB0820FFF7ADFB0820EC
:102B8400FFF7AAFB0820FFF7A7FB0820FFF7A4FB29
:102B9400FFF7DEFB0520FFF7AFFBC8E7FFF792FE68
:102BA40000080140BC01002003019BB210881B1ADD
:102BB4001BB28B4204DC494209B28B4200DB19464A
:102BC4000144118070470000C0EB4040C00340F353
:102BD4008F300C498842B8BF08460B49B1F9001040
:102BE400B1EB201F0BDB10B404110849B1F900103C
:102BF400A142B8BF21461180198010BC70471180D2
:102C0400198070470080FFFF7E01002080010020B2
:102C140030B45479CCB1C828D4BF00200120231A81
:102C240018BF012318B1844201D014799CB11568EE
:102C3400491B10B9147904B923461479032C0CD810
:102C4400B1F5FA6F0AD9002408E0B0F5167FD4BFB5
:102C540000200120E3E70D46EAE700242344DBB229
:102C6400032B07D9B1F5FA6F04D89179B1FA81F140
:102C74004909917113715071156030BC704700009F
:102C840030B597B002250C950123109310231193AE
:102C94001395002414944FF4601315930CA8FDF7B6
:102CA40079FC0F230793089509944FF480630A93E2
:102CB4000B94294607A8FDF793FE01954FF4804332
:102CC400039301A8FEF76CFCFDF748FF084BA3FB38
:102CD40000308009FEF794FA0420FEF7A7FA224692
:102CE40021464FF0FF30FEF74BFA17B030BD00BF5E
:102CF400D34D62102DE9F04385B0FEF7F3FC3D4C53
:102D0400A36943F00103A361A36903F001030193E1
:102D1400019B0320FEF722FA002211466FF00B00FC
:102D2400FEF72EFA002211466FF00A00FEF728FA89
:102D3400002211466FF00900FEF722FA0022114624
:102D44006FF00400FEF71CFA002211466FF0030036
:102D5400FEF716FA002211466FF00100FEF710FA92
:102D6400002211464FF0FF30FEF70AFAFFF788FF02
:102D7400636923F001036361FEF714FFFFF722F890
:102D8400FFF71AF9FFF7B0F9FFF706FA012220213D
:102D94001948FEF7FAFBFFF759FAFFF733FB174818
:102DA400FEF7AEFD1648FEF7ABFDFFF771FA012200
:102DB40004211448FEF7E9FB0025ADF80E50ADF8E8
:102DC4000C50114A138A1B040293138A2E4606E1FF
:102DD4000620FFF791FA0420FFF78EFA6420FEF72D
:102DE400A1FC0023094A1360094A1360094B01221C
:102DF4001A701BE100100240000801404C0400203E
:102E0400BC020020000C0140C004002098010020F6
:102E1400A0010020BC0100204FF40044AC4B1B78FF
:102E240073B93B2A40F31681A94B1B78C3EBC3014A
:102E3400A84A02EB4102B2F902201E2A00F31981CA
:102E4400A34B1B78B3B9A44AB2F90020002A40F37B
:102E54002681A049C3EBC30201EB4202B2F902206E
:102E6400524202FB04F444F3CF34C3EBC30201EB3C
:102E740042014C80994CC3EBC303964A02EB4303D3
:102E840022464FF4F071B3F90200FFF78DFEDFF82C
:102E940098828F4F3B78C3EBC303914A02EB430301
:102EA40042464FF4F071B3F90200FFF77DFEDFF8FC
:102EB4007C92B4F900004A4641F699110011FFF7DB
:102EC40025FD884CB8F90000224641F699110011FD
:102ED400FFF71CFDB9F90230834A1380B4F90220CC
:102EE40082490A80397851B981498979002940F0A9
:102EF400E78013447D4A13807B4B00221A807B4B6E
:102F0400B3F900000001784BB3F9001009010DF189
:102F14000E0303AA09B200B2FFF756FEA5F163033C
:102F2400BDF90E20934210DC6335AA420DDCA6F1F4
:102F34006303BDF90C108B4207DC6336B14204DC39
:102F44006C4B196052426C4B1A606C4B188A02AA83
:102F540040F28F2180B2FFF7D9FCFFF7C7FD684B21
:102F6400B3F9003040F2F142934205DC654AB2F90C
:102F74000020132A40F3A880634A927922B9634A55
:102F84009279002A00F0D480614B00221A70012249
:102F940018211046FFF792F9BDF90E30002BB8BF87
:102FA4005B429BB2322B08D8BDF90C30002BB8BF62
:102FB4005B429BB2322B40F20081564B00221A60D6
:102FC400544B1A68544B9A4201D9FFF77BFCBDF964
:102FD4000E50BDF90C60514A13680133136005208B
:102FE400FEF7A0FBFFF7C4FBFFF796F9484B1B78ED
:102FF400E3B9454B9B79CBB9444B9B79B3B9344B7B
:103004001A78C2EBC201334B03EB4103B3F902302C
:1030140031339BB2622B09D8314B03EB4102B2F935
:10302400023031339BB2622B7FF6D2AE354BB3F90B
:1030340000203C2A3FF7F0AE13460A2AB8BF0A2301
:103044000A3BDB03364981FB0301DC17C4EB211483
:10305400A4B2E3E6C3EBC3031E4A02EB4303B3F992
:103064000270FEF759FB0146214A3846FFF7D0FDAE
:10307400DAE61B49C3EBC30201EB4202B2F90220B8
:1030840002FB04F242F3CF32C3EBC30301EB43036D
:103094005A80244B93F8FC00FFF77EF9D0E60D49E3
:1030A400C3EBC30201EB4202B2F9022002FB04F4B7
:1030B40044F3CF34C3EBC30201EB42014C80D9E6A5
:1030C4009B1A0A4A138017E7FFF7FCFB64E700BF6B
:1030D400830100202C00002054050020A4010020BE
:1030E4003C000020980100209E0100209401002053
:1030F40088010020C4010020C0010020C004002079
:103104004C0000200008002014070020580600206E
:10311400BC01002090010020803801001408002028
:103124001F85EB51600000209C010020A0010020BD
:10313400244A127802BB244A12781ABB234A127812
:1031440032BB40F22252934228DD214BB3F90030C6
:1031540013F1320F04DA1F4BB3F90030002B02DBFA
:103164001D4B9B7903B3012205210020FFF7A6F82C
:103174001A4B01221A700FE7012218210220FFF7CF
:103184009DF809E7012218210320FFF797F803E7C8
:10319400012218210420FFF791F8FDE606220A21F6
:1031A4000020FFF78BF8F7E6002211461046FFF7E0
:1031B40085F80A4B00221A70EEE6094A13680133B7
:1031C4001360FDE685010020860100207C010020BB
:1031D40094010020540500208801002018080020D4
:1031E40090010020904B02225A60904B1B88B3F54B
:1031F400FA6FC0F09A8010B58D4B1A688D4BA3FB03
:1032040002139B094FF47A7101FB1323002B00F086
:10321400CD80894B9A8891B2884A1288521A88497B
:103224000A80DA8891B2874A1288521A86490A803B
:103234005A8891B2854A1288521A12B284490A8075
:10324400198988B283490988091A834801805989F0
:1032540088B282490988091A814801801B8899B279
:10326400804B1B885B1A1BB27F490B80002AB8BFB6
:10327400524292B2B2F5C86F04D87C4A1278002A3E
:1032840040F0A2807A494A6C22F400424A64002B3E
:10329400B8BF5B429BB2B3F5C86F04D8734B1B78BD
:1032A400002B40F09780734A536C23F4004353641B
:1032B4005F4A1368013313606F4A1178002900F0E4
:1032C4008F806E4AA2FB0302120B6D480078013016
:1032D400B2FBF0F400FB1422002A40F08180694A1A
:1032E40012787AB9674A012010706748027801326F
:1032F400D2B20270654800780230824202DD624A2E
:1033040001201070B3FBF1F201FB1233002B6AD1E0
:103314005D4B1A785D4B1B789A4201D9002B62D120
:1033240010215B48FEF737F95DE001333F4A138013
:10333400414A938899B24148B0F900300B4403EBF9
:10334400D3735B100380D38899B23E48B0F9003040
:103354000B4403EBD3735B100380138999B23D488C
:10336400B0F900300B4403EBD3735B100380538933
:1033740099B23A48B0F900300B4403EBD3735B10B5
:103384000380538899B23148B0F900300B4403EB01
:10339400D3735B10038013889AB23249B1F90030B9
:1033A400134403EBD3735B100B807047224B988953
:1033B400384C224640F28F2180B2FFF7A7FAB4F9C5
:1033C4000220354B1A8024E729494A6C42F4004212
:1033D4004A645CE7274A536C43F40043536467E749
:1033E400284B1B78BBB92D4B1B78002B40F0378141
:1033F4002A4B01221A701D4B1B78002B54D0284BEA
:103404009B79002B40F09280264B9B79002B00F097
:103414008F80002249E0002210211D48FEF7B5F8F4
:10342400184B00221A70DEE700000240BE010020A3
:10343400AC010020D34D6210C004002058000020CD
:10344400B20100205A000020B401002054000020E2
:10345400B00100205C000020B80100205E000020C4
:10346400BA01002056000020B6010020BC01002053
:1034740000340140002C0140A80100205917B7D1A5
:10348400AA010020AB010020A9010020A70100200F
:1034940000080140500000204C000020A60100203C
:1034A40014070020580600200022D2B26D4B1A7077
:1034B4006D4B996811F0200F0CBF0124002499680A
:1034C40011F0400F0CBF012000209B6813F0800F07
:1034D4000CBF01210021654B1A70654A12785A709D
:1034E400644A12685A801C7158719971624A128830
:1034F4001A81624A12885A81614A12889A81614B00
:10350400186800F0DBFD604BB3F90010B3F902203A
:10351400B3F9043040F27A3081420BDCA0F2F4605B
:10352400814217DB01F57A7189B205E00022BCE71C
:103534000122BAE740F262715448416340F27A31A1
:103544008A4209DCA1F2F4618A4215DB02F57A723F
:1035540092B203E06E21EFE740F262724B498A6354
:1035640040F27A32934209DCA2F2F462934249DBDC
:1035740003F57A739BB203E06E22EFE740F26273C5
:10358400424AD363424B9A6812F4806F0CBF012005
:1035940000209A6812F4006F0CBF012100219B687F
:1035A40013F4805F0CBF012200223A4B2D4C247887
:1035B4001C702F4C24785C70374C24685C80187124
:1035C40059719A71354A12881A81354A12885A817A
:1035D400344A12889A81344B186800F06FFD334BDB
:1035E400B3F90010B3F90220B3F9043040F27A3091
:1035F400814209DCA0F2F460814215DB01F57A71A5
:1036040089B203E06E23BBE740F26271284841634C
:1036140040F27A318A4209DCA1F2F4618A4215DB74
:1036240002F57A7292B203E06E21EFE740F2627221
:103634001F498A6340F27A32934209DCA2F2F462AF
:1036440093420DDB03F57A739BB203E06E22EFE73E
:1036540040F26273164AD363164B00221A7010BDEF
:103664006E23F7E7BD010020000C0140E0070020B5
:103674002A000020C0010020B2010020B401002073
:10368400B00100207C5300081407002000340140DE
:103694000010014024070020C4010020B8010020CC
:1036A400BA010020B601002080530008580600200B
:1036B400002C0140A6010020074B984207D2038842
:1036C4009BB24FF6FF72934203D10430F4E701201A
:1036D40070470020704700BF00080108114B1B8889
:1036E4009BB2114A128892B288B1012813D13AB917
:1036F4004EF6EE618B4201D040230DE013460BE001
:1037040063B94EF6EE618A4206D1402304E01BB150
:1037140032B9402300E0002318467047AB23FBE78F
:10372400AB23F9E7000001080000020870B5064663
:103734000D460120FFF7D2FFAB2821D000F58034DD
:103744002034E40201300F4A02EBC022944216D224
:103754002368B3F1FF3F01D00434F7E7AAB2002392
:1037640021460120FCF7B2FE08B180B208E0B2B2F3
:103774000023A11C0120FCF7A9FE80B200E08020F8
:1037840070BD00BFFFFF000810B586B0002305938D
:1037940001931248039001230493FFF78DFF28B986
:1037A40005A901A8FDF77CFD044638B900220023D1
:1037B4000A490120FCF78AFE044610B1204606B0EF
:1037C40010BD074B03930748FFF776FF0028F5D198
:1037D40005A901A8FDF764FD0446EFE70000010810
:1037E400008001080000020870B505460E4600205E
:1037F400FFF774FFAB2816D000F580342034E402C0
:103804000130094B03EBC023A21C9A420AD21A8846
:1038140092B2AA4201D0043BF6E733F8023C33806B
:10382400002000E0012070BDFEFF0008F0B587B065
:10383400002205928C4B1E88B6B28C490D88ADB21D
:1038440001920393012304934EF6EE639E4240D00B
:103854004FF6FF739E420BD0002E00F0A280FFF7BC
:1038640093FF002840F0FE800025284607B0F0BDF5
:1038740045B14EF6EE639D4213D0FFF785FF30BB92
:103884000025F2E77848FFF717FF04460028ECD13B
:1038940005A901A8FDF704FD08B92546E5E785B2A9
:1038A400E3E77148FFF708FF20B905A901A8FDF770
:1038B400F7FC40B9002200236C490120FCF706FE06
:1038C40018B90025D1E785B2CFE785B2CDE785B237
:1038D400CBE755B34FF6FF739D4248D0FFF754FF33
:1038E40000285CD10025C0E727B20CE00134A4B263
:1038F400122C1ED85E4B1B889BB226465D4A32F8BA
:1039040014008342F0D0BE42F0D05B49FFF76CFF55
:103914000128EBD0584B1988564B33F81600FFF7A3
:1039240005FF0028E2D005469FE72C464FF0FF37FD
:10393400DEE7002200234C490120FCF7C7FD08B153
:1039440085B292E7002301934C4B03930123049324
:103954004648FFF7B1FE0446002886D105A901A810
:10396400FDF79EFC08B925467FE785B27DE7434B0A
:1039740003933E48FFF7A0FE20B905A901A8FDF76F
:103984008FFC40B90022002337490120FCF79EFD3B
:1039940018B9002569E785B267E785B265E785B29E
:1039A40063E73DB14FF6FF739D420AD034464FF0B2
:1039B400FF371CE0FFF7E8FE00283FF456AF85B25E
:1039C40053E72E4B03932948FFF776FE054608B1CB
:1039D40035464AE705A901A8FDF762FC00283FF433
:1039E40044AF85B241E727B20CE00134A4B2122CF3
:1039F4001AD8234B1B889BB225461E4A32F8140062
:103A04008342F0D0BD42F0D01B49FFF7EDFE012800
:103A1400EBD0194B1988174B33F81500FFF786FEC6
:103A240005460028E1D020E7002200230F490120A9
:103A3400FCF74CFD08B185B217E7002301930A484F
:103A4400039001230493FFF737FE054608B135467A
:103A54000BE705A901A8FDF723FC00283FF405AFF7
:103A640085B202E785B200E7000001080000020801
:103A74000600010804000020C8010020008001089D
:103A8400060002082DE9F04186B005460E460020E6
:103A94000590FFF723FE402811D000284BD1DFF812
:103AA400A080264F4EF6EE62002339460120FCF733
:103AB4000DFD40B184B2204606B0BDE8F081DFF8C8
:103AC4008C801F4FEEE731462846FFF72FFE044651
:103AD40010B1F0E70134A4B2122C14D8194B33F806
:103AE4001400A842F6D01849FFF77EFE0128F1D051
:103AF400154B1988134B33F81400FFF717FE0028F1
:103B0400E8D00446D7E700230193CDF80C800123C5
:103B1400049305A901A8FDF7C3FB08B184B2CAE761
:103B24000022002339460120FCF7D0FC08B984B2F6
:103B3400C1E784B2BFE7AB24BDE700BF00000208C1
:103B44000000010804000020C801002000800108D2
:103B540038B504460D46FFF7E9FD802800D038BD8E
:103B640029462046FFF78EFFF9E77047FEE7FEE798
:103B7400FEE7FEE770477047704708B5FDF7C4FDE0
:103B8400FDF765FB08BD884209DD401A80B2B0FB31
:103B9400F2F29A4201D2D0B27047D8B270470020F4
:103BA4007047884209D9401A80B2B0FBF2F29A42B7
:103BB40001D2D0B27047D8B2704700207047CB0F03
:103BC400B3EBD07F07D090FBF1F301FB13031BB1E0
:103BD4004FF0FF3300E0002390FBF1F018447047EE
:103BE400018070473AB9B3F90020104400B288420A
:103BF40003DA188070470022F7E719807047002322
:103C0400036043607047000030B4B0F900401D68A1
:103C1400A4EB2544B4F5004F04DA14F5004F03DA9D
:103C24000F4C01E047F6FF7404FB01542514158082
:103C34001C60B0F902005C68A0EB2440B0F5004FB2
:103C440004DA10F5004F03DA054801E047F6FF7087
:103C540000FB014108145080596030BC704700BF1C
:103C64000080FFFF0180704710B4019C42B9228894
:103C7400104480B21880884204D2208010BC70475F
:103C84000022F5E72180F9E713781B1A18BF0123F6
:103C94000B701070704710B5044600210430FFF714
:103CA400E1FF0021A01CFFF7DDFF10BD2DE9F0416D
:103CB40084B00646884617461D460A9C22460DF1E6
:103CC4000D01FFF7E1FF0EB1A3794BB10EB9A37952
:103CD400EBB9A3792B702B78A37104B0BDE8F08104
:103CE400231D00930DF10E039DF80D204146012084
:103CF400FFF7BAFFBDF80E30434503D8A37923B1CB
:103D0400012300E001232B70E5E70023FBE7A31C5C
:103D140000930DF10E039DF80D2039460120FFF7A5
:103D2400A3FFBDF80E30BB4203D8A37913B101231E
:103D340000E000232B70CEE741607047002303604E
:103D440041607047F0B4BDF91070059D069C01FBFD
:103D540000F109111AD4002905DD26686FF000402E
:103D6400401A86421ADC20680844616801440E1334
:103D740041F30F30984214DD2B802B889B1B1BB220
:103D840003FB02F222606160F0BC70472668C1F157
:103D940000408642DFDA4FF00040E6E76FF0004073
:103DA400E3E7B84201DA2F80E7E72880E5E701235B
:103DB40003717047002343710123037170470000AE
:103DC400F0B5BDF91460BDF91870079C099D02FB9C
:103DD40000F2002A1DDB002A05DD6FF0004EAEEB79
:103DE400020EA6451CDB22442C7904B12B606B79AE
:103DF400CBB14FF0000C2B6803EB0C0400FB01F17A
:103E0400CB12B1F1806F10DA13F5004F0FDA274BA4
:103E14000DE0C2F1004EA645DDDD4FF00042E3E7C0
:103E24006FF00042E0E79446E5E747F6FF7321149C
:103E340003EB41014B10B1F5803F04DA13F5004F59
:103E440003DA1A4B01E047F6FF731BB2B34215DDE8
:103E540008990E80002A19DB002AD4BF002201220F
:103E6400002B16DB002BD4BF00210121914213D07B
:103E740000236B7100232B712C60F0BDBB4202DA6E
:103E840008990F80E6E708990B80E3E74FF0FF32CB
:103E9400E6E74FF0FF31E9E7B34203DCBB4203DB63
:103EA4000023E6E70123E4E70123E2E70080FFFFC4
:103EB4000123037170470023437101230371704789
:103EC400F0B5BDF91460BDF91870079C099D02FB9B
:103ED40000F2002A1EDB002A05DD6FF0004EAEEB77
:103EE400020EA6451DDB22442C790CB11B042B6069
:103EF4006B79CBB14FF0000C2B6803EB0C0400FB87
:103F040001F1CB12B1F1806F10DA13F5004F0FDA23
:103F1400274B0DE0C2F1004EA645DCDD4FF0004218
:103F2400E2E76FF00042DFE79446E5E747F6FF7308
:103F3400211403EB41014B10B1F5803F04DA13F572
:103F4400004F03DA1A4B01E047F6FF731BB2B3428A
:103F540015DD08990E80002A19DB002AD4BF00223F
:103F64000122002B16DB002BD4BF0021012191423A
:103F740013D000236B7100232B712C60F0BDBB4266
:103F840002DA08990F80E6E708990B80E3E74FF01F
:103F9400FF32E6E74FF0FF31E9E7B34203DCBB420F
:103FA40003DB0023E6E70123E4E70123E2E700BFA4
:103FB4000080FFFF0123837070470023C370012337
:103FC40083707047F0B5BDF91470BDF918C0079C33
:103FD400089D099E02FB00F2002A20DB002A05DD71
:103FE4006FF0004EAEEB020EA6451FDB2244B47800
:103FF40004B13380F378FBB9002A1ADB002414449B
:10400400231434881C4424B200FB01F1CB12B1F117
:10401400806F13DA13F5004F12DA274B10E0C2F168
:10402400004EA645DADD4FF00042E0E76FF00042B3
:10403400DDE74FF6FF74E2E70023E2E747F6FF739C
:1040440003EB44014B10B1F5803F04DA13F5004F44
:1040540003DA194B01E047F6FF731BB2BB4214DDD0
:104064002F80002A18DB002AD4BF00220122002B53
:1040740015DB002BD4BF00210121914212D0002373
:10408400F3700023B3703480F0BD634502DAA5F801
:1040940000C0E6E72B80E4E74FF0FF32E7E74FF09C
:1040A400FF31EAE7BB4203DC634503DB0023E7E7B8
:1040B4000123E5E70123E3E70080FFFF2DE9F04F4B
:1040C40095B00568C4684668876833799900C9B2B1
:1040D40072795000C0B20144C9B2B0790144C9B286
:1040E4000991003A18BF012294F89AC094F89B10E1
:1040F400002B0CBF134682F00103002818BF83F085
:104104000103BCF1000F18BF83F00103002918BF9D
:1041140083F0010394F89C10003918BF012181EA4F
:104124000302994256D094F98EE0BE4B09990B4490
:1041340093F98817CBB294F88F001B1A5BB2012B4A
:1041440006D013F1050F03D0FF2384F88E3002E06C
:10415400012384F88E3084F88F10B4F98000A4F819
:1041640056001FFA80F8B4F88210A8EB01031BB2C2
:10417400002B43DBB5F90410994243DC012384F896
:10418400A93094F8A91084F8A21094F98E307345DC
:1041940014BF4FF0010C4FF0000C04D094F8A7901A
:1041A400B9F1000F54D1734534D0B4F98A109BB2DD
:1041B40001FB03F3A4F87A30A4F88200B4F9863042
:1041C400A4F88430B4F98830A4F88630A4F88800C0
:1041D40084F8A7C004F14003B5F90A100120FFF7E1
:1041E40001FD0C90B5F90A30834237DBB4F97A301B
:1041F4000B93002B2EDB0B9B079332E0A1EB080300
:104204001BB2B7E7B5F906109942BADB002384F86C
:10421400A930B6E729B1A989090191FBF0F109B2E6
:10422400C5E7A989890089B20901B4F884E0B4F822
:104234008690CE441FFA8EFEB4F88890CE441FFABE
:104244008EFEF0440FFA88F891FBF8F109B2AEE75C
:104254000021ACE75B421BB2079302E000230B93FF
:104264000793B5F9D430079A93420DDC012384F8FF
:10427400A83095F8FB3083B994F8A82062B394F879
:10428400A2205AB3002209E0B5F9D230079A93422A
:10429400EFDB002384F8A830EBE70122D2B20892C6
:1042A40094F8A3200D9294F8A4200E92B6F902B0CB
:1042B4004FEA0B120F920FFA82FBB6F908204FEA6D
:1042C400021A46F63F21B1EB021F09DB564A92451A
:1042D40017DB0FFA8AFA05E00022DFE70122DDE7A7
:1042E40046F6402AB6F90A204FEA021846F63F215C
:1042F400B1EB021F08DB4C4A904572DB0FFA88F8D9
:1043040004E0DFF82CA1EDE746F64028002B40F04E
:104314009180089B002B6ED0B4F956100C9B9942E7
:1043240000DC0B4694F98E20012A5DD0DFF8F4C03E
:104334000998604490F88807013040B29B0393FBCE
:10434400F1F399B293B203FB01F31BB203EB803395
:1043540043F38F03002B62DDC3EB031343F30F130B
:104364000A9394F9903095F8F920022A00F082809B
:104374004FF0FF3984F8909099450ED06BB9FF2324
:1043840084F898300023A4F87C30A4F87E30A4F894
:104394005230A4F85430A4F87830B9F1000F40F04A
:1043A4003E8195F8FA30002B40F0B48044F6E712D1
:1043B40002FB0AF102FB08F800295EDB00230B4430
:1043C400DB13B8F1000F5BDB0022904448F38F3815
:1043D4004344B3F5004F56DA13F5004F55DA134B47
:1043E40053E0DFF84C8091E7DFF838C00998604467
:1043F40090F98807A2E794F98E30012B09D0094B74
:10440400099A134493F8883701335BB21B031BB238
:10441400A0E7044B099A134493F98837F6E700237D
:104424009AE700BF84530008C195FFFF0080FFFF97
:10443400C095FFFFB6F90E3095F8F89009FB03F923
:10444400A9F5F0794FF4B4514846FFF7B8FB80B2B0
:1044540000EB4000C0EB0013DB009BB21B019BB2DE
:10446400A9EB03090FFA89F94FEA89090FFA89F3CD
:104474000A9376E74FF000097CE747F6FF739EE75F
:1044840043F6FF72A1E747F6FF730FFA83F8B423EC
:10449400802200210A98FFF776FBB74B33F91020EE
:1044A400A4F87C20B43003EB4000B0F90230A4F847
:1044B4007E3094F9983032780AB94FF0FF3984F895
:1044C4009890994507D033B90022A4F85220A4F853
:1044D4007820A4F85420B9F1000F40F0A080002BFC
:1044E40070D14046B4F97E1001FB08F848F38F38C8
:1044F4005346B4F97C2002FB0AFA4AF38F3AA8EB3C
:104504000A0ABAF5004F62DA1AF5004F61DADFF8E9
:104514006CA25EE0012B1CD044F6E71202FB0AF108
:1045240002FB08F2002942DB00230B44DB135B424D
:10453400002A3FDB4FF00008904448F38F38A3EB88
:104544000803B3F5004F38DA13F5004F37DA8B4B15
:1045540035E053464146AAEB0802B2F5004F04DAAF
:1045640012F5004F03DA854A01E047F6FF7244F67C
:10457400E71808FB02F8B8F1000F10DB4FF0000A4F
:10458400D04448F3CF38C3F1000AAAEB0101B1F5D6
:10459400004F07DA11F5004F06DA784904E047F6D0
:1045A400FF7AEDE747F6FF710FFA81FA6FE747F6F6
:1045B400FF73BAE743F6FF78BEE747F6FF730FFAD7
:1045C40083F864E704F13800FFF719FB89E747F63D
:1045D400FF7AADF848A003FB01F343F38F3302FBEA
:1045E40000F242F38F321344B3F5004F04DA13F5AB
:1045F400004F03DA614B01E047F6FF73ADF84A3030
:1046040004F1380304F15202B5F8EC1012A8FFF7D4
:10461400FBFAB4F95230002B49DBA4F8783094F853
:10462400A330002B00F0F08195F8FD30002B34D03E
:1046340094F89D3013F0040F3ED001238DF84F30D1
:10464400099B072B55D04FF00008099B002B08BF8E
:1046540008F101089DF84F309B00DBB29844EA89C9
:10466400298A18F0FF0804F12E03009304F1A10332
:1046740014BF01200020FFF719FB04F12C020DF1F7
:104684004F0194F8A100FFF7FFFA9DF84F309BB358
:1046940087F80680BB7984F89D3094F8A1307BBB01
:1046A4003378002B38D07378C3BB012329E09BB245
:1046B4005B42A4F87830B2E7B4F98C30002B0CDB01
:1046C400327872B1B5F9DC2007998A420DDDB5F96B
:1046D400DE209A420BDB002304E09BB25B421BB258
:1046E400EEE700238DF84F30AAE70023FAE7012311
:1046F400F8E74FF00208A8E794F89D30BB71C9E7CA
:104704000123DBB28DF84F307278022A08D095F875
:10471400FC1039B3012104E00123F2E70023F0E7A0
:104724000121C8B2032A1FD00022D1B294F89E20DE
:1047340042BB012384F89E30022384F89F30002377
:1047440084F8993095F8F930022B00F09680BBF587
:104754007A5F00F309811BF57A5F80F2BA80DFF893
:1047640020B0B6E00021DCE795F8FC200AB1002275
:10477400DBE70122D9E700BF845300080080FFFF74
:1047840080C1FFFF94F89F20012A16D0002284F8EC
:104794009920002BD6D17378012B02D008B90029B7
:1047A400D0D0012384F89F30002957D0022384F805
:1047B400A030032384F89930C4E743B1002384F87C
:1047C400A030022284F89F2084F89930BAE794F844
:1047D400A030012B0FD0022B20D0012384F8993074
:1047E40009B90028AED069B3022384F8A0300323AA
:1047F40084F89930A6E7022384F899300028A1D1DF
:1048040029B184F8A030032384F899309AE703236C
:1048140084F8A030012384F8993093E7032384F8C3
:10482400993000298ED130B1012384F8A0300223BD
:1048340084F8993086E7032384F8A030012384F8B0
:1048440099307FE730B1012384F8A030022384F843
:10485400993077E7032384F8A03073E730B101235C
:1048640084F8A030022384F899306BE7032384F89A
:10487400A030012384F8993064E70023ADF8403078
:10488400B5F91230ADF84230B5F9DA30ADF844304C
:10489400B5F9CE30ADF84630BBF57A5F05DC1BF5D3
:1048A4007A5F04DADFF81CB301E04FF47A5B7378C3
:1048B40014AA02EB430333F9103C5B01BE4A82FBAA
:1048C4000312DB17C3EBE2039BB20BFB03FB4BF3BB
:1048D4000F3B94F9971094F89930003B18BF0123CB
:1048E4005AB284F89720002B41D0002B40F08480EA
:1048F400B4F97430002BC0F28280A4F8763094F9B5
:10490400912095F8F930022B00F03F83B4F97480BC
:104914004FF0FF3384F89130934206D02AB9A4F8BB
:104924004C20A4F84E20A4F85020002B40F0C9835A
:10493400B4F95AC0B4F97E0000FB0CF242F38F3E86
:10494400B4F95810B4F97C3003FB01F242F38F320E
:10495400AEEB0202B2F5004F80F21B8312F5004F5A
:1049640080F21983954A16E34FF47A5BB1E79142DA
:1049740004D0012384F8A6300023A364B4F98C3056
:104984001903002B0BDA41F0784194F8A6008DF856
:104994004F00002384F8A63020B9A36C03E021F073
:1049A4007841F2E70B465A4212F0006F19D042F0F8
:1049B400784C2A68624508DB524212F0006F13D02B
:1049C40042F07842944500DB6246134413F0006FD2
:1049D4000DD043F0784368B1A1641B13A4F874307C
:1049E40086E722F0784CE4E722F07842EAE723F005
:1049F4007843F0E7A364F0E7A4F874B078E79BB2D7
:104A04005B42A4F876307AE794F8A430002B00F0E7
:104A14005B8195F8FE30002B4CD0BBF1000F09DB15
:104A2400B5F9E01059450BDBB5F9E2305B4508DC1C
:104A34005B4606E00F9BC3F1000B0FFA8BFBEFE71D
:104A44000B4695F8F920022A0CD0B5F9CC80B5F9BB
:104A5400D600079A904208DBB5F9D8E0964505DC04
:104A6400964603E0B5F9D080F1E78646B5F8E2C092
:104A7400A3EB0C031BB2DB0389B2A1EB0C0109B25B
:104A840093FBF1F399B2B5F8D8C0AEEB0C031BB2AB
:104A9400DB0380B2A0EB0C0000B293FBF0F39BB2FB
:104AA40003FB01F3C3F3CF3303FB08F343F3CF3327
:104AB400A4F8723094F9952095F8F930022B41D07E
:104AC4004FF0FF3384F89530934203D012B9FF229C
:104AD40084F89620002B7FF412AFB5F91230A4F8B5
:104AE4005C309BB25B42A4F85E30B4F95A000028F3
:104AF4002ADBB5F97010B5F872208BB2D21A2D23C7
:104B040092B2FFF740F8083005EB4000B0F90430EA
:104B1400A4F860309BB25B42A4F86230B5F9CE8051
:104B2400A4F86480B4F972000004B0F1004F0FD00F
:104B340090FBF8F0002811DBB0F5803F0FDB4FF657
:104B4400FF700CE00023BDE780B2404200B2D0E722
:104B5400B8F1FF3FECD16FF00040EDE700203123C6
:104B640040F21F52002180B2FFF71BF800F5627378
:104B7400134800EB4300438808FB03F84FEA284836
:104B8400A4F866801FFA88F35B421BB2A4F868306D
:104B940094F9961094F89920022A34D0032A13D059
:104BA400012A45D0FF2384F89630B4F864305B4280
:104BB400A4F86A30A3E600BFD34D62100080FFFF63
:104BC4008453000880C1FFFF022384F89630994281
:104BD40073D1B5F8DA00079BC01AB4F96030B5F8A0
:104BE400E420B5F8F61004F1140CCDF808C004F173
:104BF4006C0CCDF804C04FF0000CCDF800C000B22E
:104C0400FFF7A0F8D1E7012284F89620B4F95220E6
:104C1400904502DB93424EDD984692B2A8EB02081F
:104C24000FFA88F8B5F8F23003FB08F36364BCE7C5
:104C3400002384F8963089BBB4F86630B4F8780061
:104C4400181AB4F97630B5F8E420B5F8F21004F186
:104C5400240CCDF808C004F1700CCDF804C04FF05A
:104C64000008CDF8008000B2FFF76CF8B5F8DA0060
:104C7400079BC01AB4F97630B5F8E420B5F8F610FD
:104C840004F11C0CCDF808C004F16E0CCDF804C07E
:104C9400CDF8008000B2FFF755F886E74FF07A713F
:104CA40004F12400FFF74AF84FF07A7104F11C0074
:104CB400FFF744F8C0E79046AFE74FF0617104F1A5
:104CC4001400FFF73BF884E794F8A530002B3FF479
:104CD40016AE94F9922095F8F930022B20D04FF0BB
:104CE400FF3384F89230934205D022B9FF2284F82E
:104CF400932084F89420002B7FF401AE94F9931050
:104D040094F89920022A31D0032A0BD0012A4BD0DF
:104D1400032384F89330B4F97430A4F85830C8E00D
:104D24000023DEE7022384F893308B4240F0E380D3
:104D3400B4F96C801FFA88F35B421BB2B4F9742097
:104D4400B4F96600824204DCB4F96800824200DBF4
:104D54001046B4F95220801AB0F5004F80F2CF808B
:104D640010F5004F80F2CD80C648CAE0012384F8D4
:104D740093308B4253D1B5F90800000100B295F885
:104D8400FC30002B62D0002860D000284EDDB4F93E
:104D94006020ADF84820B4F97410B4F9622091424F
:104DA40041DDADF84A1059E084F89330032B00F24A
:104DB400808001A252F823F0CD4D0008774D000801
:104DC4002F4D00081B4D0008B4F97630B4F970205B
:104DD400934200DA1A46B4F96E30934200DD13466A
:104DE400B4F97420002A0DDB002AD4BF002201226A
:104DF40003FB02F31BB2B4F960209A4205DAA4F86B
:104E0400582056E04FF0FF32F2E7B4F962209A429C
:104E140002DDA4F858204CE0A4F8583049E0201DE5
:104E2400FFF749F8A7E7ADF84A2017E0B4F9601096
:104E3400B4F97420914206DAADF84810B4F962204E
:104E4400ADF84A200AE0ADF84820F7E7B4F960204D
:104E5400ADF84820B4F96220ADF84A200BB9B4F992
:104E640074000B9BC01AB0F5004F04DA10F5004F24
:104E740003DA844801E047F6FF70B4F98CE0B5F832
:104E8400F420B5F8EA1004F1040CCDF810C004F1D4
:104E9400580CCDF80CC0636C0293BDF94AC0CDF830
:104EA40004C0BDF948C0CDF800C0734600B2FFF796
:104EB40007F894F99430089A002A43D0002284F821
:104EC4009420002B42D1B4F872305B421BB2B4F987
:104ED4006400984204DBB4F96A00984200DC184686
:104EE400B4F95430C01AB0F5004F34DA10F5004F5D
:104EF40033DA644831E02046FFF75FF818E747F6F5
:104F0400FF70B4F96020904500DD9046B4F962C0AA
:104F14009C4500DA9C46B4F98C30B5F8F020B5F81D
:104F2400E810049404F1580ECDF80CE04FF0000E94
:104F3400CDF808E0CDF804C0CDF8008000B2FFF74A
:104F440041F8B6E7FF2384F89430D8E404F10C0068
:104F5400FEF730FFB7E747F6FF70B5F8EE20B5F877
:104F6400E61004F10C03049304F15A0303930023A1
:104F74000293B4F95EC0CDF804C0B4F95CC0CDF8B6
:104F840000C000B2FEF71CFFB9E4B4F95880002356
:104F9400C0E447F6FF7203FB0CF343F38F3301FBCA
:104FA40000F141F38F310B44B3F5004F04DA13F5EC
:104FB400004F03DA334B01E047F6FF7343F26D70A1
:104FC40000FB03F3002B12DB0020184411B2C2F3E0
:104FD400C03392B2134443F34E03C3EBA033B3F58F
:104FE400004F07DA13F5004F06DA264B04E043F6C8
:104FF400FF70EAE747F6FF734A421BB21846D21A1B
:10500400B2F5004F04DA12F5004F03DA1D4A01E04D
:1050140047F6FF72994213DA8C4612B2624500DCFD
:105024009446994200DD0B469A4200DB13466344E2
:10503400B3F5004F06DA13F5004F05DA114B03E020
:105044009C46EAE747F6FF7343F34F03C91AB1F5E9
:10505400004F04DA11F5004F03DA0A4901E047F67C
:10506400FF7144F6E71C0CFB01F141F38F31A4F806
:105074004C10C01AB0F5004F06DA10F5004F05DAEF
:10508400004803E00080FFFF47F6FF7044F6E71195
:1050940001FB00F040F38F30A4F84E00D21AB2F5B1
:1050A400004F04DA12F5004F03DA5F4A01E047F6D5
:1050B400FF7244F6E71303FB02F242F38F32A4F8C3
:1050C4005020089B1BB195F8F930022B10D0089B97
:1050D4001BB195F8F930012B11D0544B099A1344A4
:1050E40093F98807052850DC00284FDA00204DE0AA
:1050F400B4F94C10B4F94E20B4F9503062E095F88C
:10510400FE30002B3FD0B4F8723094F98E0080B298
:1051140000FB03F000B2800080B20A9B184485B201
:105124004FF4B44100B2FEF74AFD80B200EB4000F8
:10513400C0EB0010C00000B2800180B2281A00B297
:10514400B42380220021FEF71EFD384B00F5B47213
:1051540003EB4202B2F9041001FB08F141F38F3171
:1051640000F5077203EB4202B2F9062002FB08F2D3
:1051740042F38F3200F5357033F9103003FB08F336
:1051840043F38F331EE00A98DAE7052000EB400072
:10519400264B1A1892F9761789B21FFA88F505FB7F
:1051A40001F109B2421C1A4492F9762792B202FB29
:1051B40005F212B20230184490F976379BB203FB21
:1051C40005F31BB20911398012117A80327984F8FF
:1051D4009A20727984F89B20B27984F89C200C9AE6
:1051E400A4F88020079AA4F88A2094F8A52084F8CB
:1051F400A3200D9A84F8A4200E9A84F8A520A4F87C
:105204008C801B11BB800B9B1B113B810A9B4FEABB
:10521400A319A7F80A90B4F95230BB81B4F95430F9
:10522400FB8115B0BDE8F08F0080FFFF84530008B8
:1052340038B50268C468FF2384F8903084F8983045
:1052440084F8973084F8953084F8963084F8923056
:1052540084F8933084F8943084F89130B2F90A30A9
:10526400A4F88030012584F8A350B2F90A10A4F8F8
:10527400561004F14000FEF7B3FC04F12E00FEF7D3
:105284000AFD84F8A6504FF07A7104F12400FEF769
:1052940053FD4FF07A7104F11C00FEF74DFD4FF001
:1052A400617104F11400FEF747FD4FF46152A4F854
:1052B4005C204CF2C073A4F85E30A4F86020A4F81B
:1052C400623042F6E062A4F864204DF22013A4F8A0
:1052D4006A30A4F86620A4F86830201DFEF7E8FDC3
:1052E4002046FEF767FE04F10C00FEF760FD38BDB2
:1052F400002103E00B4B5B58435004310A480B4B2D
:1053040042189A42F6D30A4A02E0002342F8043BC8
:10531400084B9A42F9D3FCF71FFCFAF7A5FFFDF7F7
:10532400E9FC70471C5B00080000002060010020BD
:1053340060010020E4080020FEE70000F8B500BF8B
:10534400F8BC08BC9E467047F8B500BFF8BC08BC62
:045354009E467047BA
:1053580002030405060708090A0B0C0D0E0F1010AE
:10536800000000000000000000000000010203042B
:105378000607080904080020F00700200020EA2199
:10538800CA239E2567272329D32A752C0A2E902FF6
:1053980007316F32C7330F3546366D378238863955
:1053A800783A573B243CDE3C853D193E9A3E073F00
:1053B800613FA63FD83FF63F0040F63FD83FA63FA3
:1053C800613F073F9A3E193E853DDE3C243C573BF2
:1053D800783A863982386D3746360F35C7336F329B
:1053E8000731902F0A2E752CD32A232967279E254B
:1053F800CA23EA2100200C1E0E1C081AFA17E4150D
:10540800C713A4117C0F4E0D1D0BE808B1067704D5
:105418003C020000C4FD89FB4FF918F7E3F4B2F22F
:1054280084F05CEE39EC1CEA06E8F8E5F2E3F4E116
:1054380000E016DE36DC62DA99D8DDD62DD58BD3BE
:10544800F6D170D0F9CE91CD39CCF1CABAC993C88A
:105458007EC77AC688C5A9C4DCC322C37BC2E7C19C
:1054680066C1F9C09FC05AC028C00AC000C00AC09F
:1054780028C05AC09FC0F9C066C1E7C17BC222C319
:10548800DCC3A9C488C57AC67EC793C8BAC9F1CA9D
:1054980039CC91CDF9CE70D0F6D18BD32DD5DDD6C0
:1054A80099D862DA36DC16DE00E0F4E1F2E3F8E5DA
:1054B80006E81CEA39EC5CEE84F0B2F2E3F418F783
:1054C8004FF989FBC4FD00003C027704B106E808E7
:1054D8001D0B4E0D7C0FA411C713E415FA17081AFB
:1054E8000E1C0C1E00206D3746360F35C7336F3241
:1054F8000731902F0A2E752CD32A232967279E253A
:10550800CA23EA2100200C1E0E1C081AFA17E415FB
:10551800C713A4117C0F4E0D1D0BE808B1067704C4
:105528003C020000C4FD89FB4FF918F7E3F4B2F21E
:1055380084F05CEE39EC1CEA06E8F8E5F2E3F4E105
:1055480000E016DE36DC62DA99D8DDD62DD58BD3AD
:10555800F6D170D0F9CE91CD39CCF1CABAC993C879
:105568007EC77AC688C5A9C4DCC322C37BC2E7C18B
:1055780066C1F9C09FC05AC028C00AC000C00AC08E
:1055880028C05AC09FC0F9C066C1E7C17BC222C308
:10559800DCC3A9C488C57AC67EC793C8BAC9F1CA8C
:1055A80039CC91CDF9CE70D0F6D18BD32DD5DDD6AF
:1055B80099D862DA36DC16DE00E0F4E1F2E3F8E5C9
:1055C80006E81CEA39EC5CEE84F0B2F2E3F418F772
:1055D8004FF989FBC4FD00003C027704B106E808D6
:1055E8001D0B4E0D7C0FA411C713E415FA17081AEA
:1055F8000E1C0C1E0020EA21CA239E25672723299A
:10560800D32A752C0A2E902F07316F32C7330F35E6
:1056180046366D3782388639783A573B243CDE3C2B
:10562800853D193E9A3E073F613FA63FD83FF63F6A
:105638000040F63FD83FA63F613F073F9A3E193EDC
:10564800853DDE3C243C573B783A863982386D37B5
:10565800DDCCBECAD2C81BC797C547C427C338C24A
:1056680077C1E1C073C02CC007C001C016C043C0D9
:1056780083C0D4C031C197C102C26EC2D8C23DC373
:105688009BC3EFC336C470C49AC4B4C4BCC4B4C406
:105698009AC470C436C4EFC39BC33DC3D8C26EC29C
:1056A80002C297C131C1D4C083C043C016C001C073
:1056B80007C02CC073C0E1C077C138C227C347C434
:1056C80097C51BC7D2C8BECADDCC30CFB7D16ED400
:1056D80055D769DAA9DD0FE19AE445E80DECEDEF5D
:1056E800E0F3E3F7EFFB000011041D08200C131092
:1056F800F313BB17661BF11E57229725AB28922B75
:10570800492ED030233342352E37E538693AB93B34
:10571800D93CC83D893E1F3F8D3FD43FF93FFF3FED
:10572800EA3FBD3F7D3F2C3FCF3E693EFE3D923D67
:10573800283DC33C653C113CCA3B903B663B4C3B17
:10574800443B4C3B663B903BCA3B113C653CC33CED
:10575800283D923DFE3D693ECF3E2C3F7D3FBD3FFB
:10576800EA3FFF3FF93FD43F8D3F1F3F893EC83D89
:10577800D93CB93B693AE5382E3742352333D03026
:10578800492E922BAB2897255722F11E661BBB1773
:10579800F3131310200C1D0811040000EFFBE3F7AE
:1057A800E0F3EDEF0DEC45E89AE40FE1A9DD69DAE5
:1057B80055D76ED4B7D130CFDDCC443B4C3B663B9C
:1057C800903BCA3B113C653CC33C283D923DFE3DA5
:1057D800693ECF3E2C3F7D3FBD3FEA3FFF3FF93F4B
:1057E800D43F8D3F1F3F893EC83DD93CB93B693AFC
:1057F800E5382E3742352333D030492E922BAB284B
:1058080097255722F11E661BBB17F3131310200CA4
:105818001D0811040000EFFBE3F7E0F3EDEF0DECDA
:1058280045E89AE40FE1A9DD69DA55D76ED4B7D116
:1058380030CFDDCCBECAD2C81BC797C547C427C363
:1058480038C277C1E1C073C02CC007C001C016C000
:1058580043C083C0D4C031C197C102C26EC2D8C28E
:105868003DC39BC3EFC336C470C49AC4B4C4BCC49C
:10587800B4C49AC470C436C4EFC39BC33DC3D8C272
:105888006EC202C297C131C1D4C083C043C016C022
:1058980001C007C02CC073C0E1C077C138C227C39C
:1058A80047C497C51BC7D2C8BECADDCC30CFB7D155
:1058B8006ED455D769DAA9DD0FE19AE445E80DEC15
:1058C800EDEFE0F3E3F7EFFB000011041D08200CF7
:1058D8001310F313BB17661BF11E57229725AB282D
:1058E800922B492ED030233342352E37E538693A8A
:1058F800B93BD93CC83D893E1F3F8D3FD43FF93F56
:10590800FF3FEA3FBD3F7D3F2C3FCF3E693EFE3D16
:10591800923D283DC33C653C113CCA3B903B663BED
:105928004C3B443BDDCC30CFB7D16ED455D769DA88
:10593800A9DD0FE19AE445E80DECEDEFE0F3E3F7BC
:10594800EFFB000011041D08200C1310F313BB1704
:10595800661BF11E57229725AB28922B492ED03073
:10596800233342352E37E538693AB93BD93CC83D2F
:10597800893E1F3F8D3FD43FF93FFF3FEA3FBD3F80
:105988007D3F2C3FCF3E693EFE3D923D283DC33CC6
:10599800653C113CCA3B903B663B4C3B443B4C3B13
:1059A800663B903BCA3B113C653CC33C283D923D5D
:1059B800FE3D693ECF3E2C3F7D3FBD3FEA3FFF3F66
:1059C800F93FD43F8D3F1F3F893EC83DD93CB93B85
:1059D800693AE5382E3742352333D030492E922B99
:1059E800AB2897255722F11E661BBB17F31313101C
:1059F800200C1D0811040000EFFBE3F7E0F3EDEFC6
:105A08000DEC45E89AE40FE1A9DD69DA55D76ED4C3
:105A1800B7D130CFDDCCBECAD2C81BC797C547C4E3
:105A280027C338C277C1E1C073C02CC007C001C00A
:105A380016C043C083C0D4C031C197C102C26EC270
:105A4800D8C23DC39BC3EFC336C470C49AC4B4C4A0
:105A5800BCC4B4C49AC470C436C4EFC39BC33DC3AA
:105A6800D8C26EC202C297C131C1D4C083C043C07C
:105A780016C001C007C02CC073C0E1C077C138C2CE
:105A880027C347C497C51BC7D2C8BECADDCCFFFF12
:105A9800F3FFCCFF8AFF2EFFB7FE26FE7AFDB3FC8C
:105AA800D1FBD3FABAF984F831F7C1F534F488F2A6
:105AB800BEF0D4EECAEC9EEA51E8E0E54BE391E093
:105AC800B0DDA6DA73D713D485D0C6CCD5C8ADC49B
